:020000040800F2
:10000000880F0020F90100080B1E0008971C00084B
:10001000091E0008611900081929000800000000E5
:100020000000000000000000000000009D24000807
:100030001D1A000800000000AB2300088D260008F0
:10004000130200081302000813020008130200083C
:1000500013020008130200081F1A00081302000808
:10006000130200081302000813020008130200081C
:10007000130200081302000813020008130200080C
:1000800013020008130200081302000813020008FC
:1000900013020008130200081302000813020008EC
:1000A00013020008130200081302000813020008DC
:1000B00013020008130200081302000813020008CC
:1000C00013020008130200081302000813020008BC
:1000D00013020008E1260008452700081302000863
:1000E00013020008130200081302000800F002F8CF
:1000F00000F073F80AA090E8000C82448344AAF14F
:100100000107DA4501D100F068F8AFF2090EBAE84C
:100110000F0013F0010F18BFFB1A43F0010318473B
:1001200020560000405600000A444FF0000C10F822
:10013000013B13F0070408BF10F8014B1D1108BF65
:1001400010F8015B641E05D010F8016B641E01F805
:10015000016BF9D113F0080F1EBF10F8014BAD1C55
:100160000C1B09D16D1E58BF01F801CBFAD505E073
:1001700014F8016B01F8016B6D1EF9D59142D6D3CD
:10018000704700000023002400250026103A28BFF5
:1001900078C1FBD8520728BF30C148BF0B607047F9
:1001A000662903F0B682642900F0B880732900F054
:1001B0009484002070471FB500F00CFD040000205F
:1001C000002102F0C9FF401C60600020002102F005
:1001D000ADFFE0601FBD10B510BD00F069FE114617
:1001E000FFF7E9FF02F0FCFD00F095FE03B4FFF716
:1001F000F2FF03BC02F0ACFB094880470948004706
:10020000FEE7FEE7FEE7FEE7FEE7FEE7FEE7FEE7C6
:10021000FEE7FEE704480549054A064B7047000023
:1002200091260008ED00000888090020880F0020B2
:10023000880B0020880B0020704700000FB4044991
:1002400010B503AA029800F04DFC10BC5DF814FB39
:100250003C0000200FB41CB5074B06AA7B4469463E
:100260000090059800F00FFC0020694600F01EFC8D
:100270001CBC5DF814FB00004D08000070B504467E
:1002800085690068C10601D5302600E02026C00738
:1002900007D070BDD4E9012130469047206A401C48
:1002A00020626D1EF6D570BD70B504468569007874
:1002B000C00707D170BDD4E9012120209047206AF2
:1002C000401C20626D1EF6D570BD70B50C4605460B
:1002D000012A05D02878800600D5EA69002302E0CB
:1002E000012305E05B1C934202D2E05C0028F9D1B7
:1002F000A869E618C01AA861286A18442862284626
:10030000FFF7BCFF04E0D5E9012114F8010B904789
:10031000B442F8D32846FFF7C7FF70BD2DE9F0417E
:100320000646002410687529314616A510D0AFF393
:100330000080002802DA404213A507E031688A07EE
:1003400001D512A502E0490704D511A5012401E059
:10035000AFF3008000210A2206F1240709E0B0FB78
:10036000F2FCB0FBF2F302FB1C003030785418466C
:10037000491C0028F3D123462A463046BDE8F04107
:1003800000F014B9000000002D0000002B00000058
:10039000200000002DE9F0474FF0000A894604468E
:1003A000C0F820A02046E1688847002876D025289C
:1003B00006D0D4E901219047206A401C2062F1E771
:1003C000E168204600258847C4F81CA0064600279F
:1003D000C4F818A02A2E09D0304602F0B2FA38B379
:1003E00004EB8708303EC8F8186019E059F8041B80
:1003F000204604EB87029161E1688847012F064699
:1004000018D1E069002820DA25F020051DE0D8F891
:10041000180000EB800006EB40003038C8F81800E8
:100420002046E1688847064602F08BFA0028EED1A4
:10043000012F0AD02E2E08D12046E16888477F1C64
:100440000646022F45F02005C4DBA069002803DA28
:10045000404245F00105A061E80701D025F01005F4
:10046000B6B1A6F14100192802D8203645F400653E
:100470004A463146204625604D46FFF791FE58B169
:10048000012806D0ED1D25F0070000F1080989E7D5
:1004900004E005F1040985E730468AE7206ABDE8F3
:1004A000F08770B5064600F07DF8046805463046D2
:1004B0000A22002100F028FB2C6070BD014A00F0E8
:1004C0005BBB00007004002030B505460B462A4691
:1004D00013F8014B12F8010B08B1A042F8D01CB17F
:1004E000002802D06D1CF1E7284630BD10B5203A37
:1004F000C0F00B80B1E81850203AA0E81850B1E8DD
:100500001850A0E81850BFF4F5AF5FEA027C24BF92
:10051000B1E81850A0E8185044BF18C918C0BDE889
:1005200010405FEA827C24BF51F8043B40F8043B52
:1005300008BF7047D20728BF31F8023B48BF11F807
:10054000012B28BF20F8023B48BF00F8012B704761
:100550004FF0000200B5134694469646203922BF5C
:10056000A0E80C50A0E80C50B1F12001BFF4F7AFA7
:10057000090728BFA0E80C5048BF0CC05DF804EB89
:10058000890028BF40F8042B08BF704748BF20F8F7
:10059000022B11F0804F18BF00F8012B70477047F5
:1005A0007047704700487047240900202DE9F04744
:1005B0000D4699469246044600F1240801688806D3
:1005C00004D5E06921F01001216000E00120A8427B
:1005D00001DD471B00E00027A1697A1902EB090041
:1005E000081AA0612078C00602D42046FFF746FE14
:1005F000002608E0D4E901211AF806009047206A95
:10060000401C761C20624E45F4DB2078C0060AD5DB
:100610002046FFF733FE06E0D4E901213020904761
:10062000206A401C2062381EA7F10107F4DC07E0B5
:10063000D4E9012118F805009047206A401C206287
:10064000281EA5F10105F3DC2046FFF72DFE2078DA
:10065000000602D50220BDE8F0870120FBE77047C5
:100660002DE9FF4F0C461E464FF0FF378BB0D2E905
:100670000001DDF860800A908A46C1F30A5505B989
:100680003D46002108464FF00000BAF1000F00F48B
:10069000400005DA00EB80004FF4400101EA500011
:1006A0004FEA9059B9F1010F00DDB9460A9850EAB6
:1006B0004A000ED044F61050A5F2FF3545432F14E2
:1006C000B8F1000F1ED07542291E1EDDC9F10002CF
:1006D0001CE0B8F1010F4FF0000001D0302103E021
:1006E000F24305E02154401CB042FBDB30460022BF
:1006F000002121540B99C1F80880C1E900200FB0F6
:10070000BDE8F08FBD1B6D1CDEE74A4600DA69428A
:1007100006A800F039FB06AB93E8070003AB83E8BB
:10072000070050460A9900F03FFC8DE80700A0F54D
:1007300000501F3800900398002D0ADD42F21F017F
:100740004A460844002303A90390684600F0A8FE27
:1007500009E0A0F500504A461F38002303A9039082
:10076000684600F0B2FE8DE807000004000C03D0DC
:100770004FF0FF30410800E01046B8F1000F03D001
:100780000022009215461EE0751E05D400F026FAE0
:10079000303262556D1EF9D5B3460122084302D0AE
:1007A00000227F1C04E02078302801D100227F1E27
:1007B000002A099784D01DE0112D07DA00F00EFA07
:1007C000303262556D1C50EA0102F5D1084302D067
:1007D0000098C8B10EE00021681E05E0235C625C51
:1007E00063542254401E491C8142F7DBAB46A81BD0
:1007F000401E0990002004F80B000B98099AC0F8DD
:100800000880C0E9002B7AE711264FF0000857E76F
:100810002DE9F04F88460446D21D22F0070191B021
:10082000D1E90001CDE90A0102F077F802460B9800
:10083000C00F01D02D2007E02068810701D52B20B3
:1008400002E0202101EAC000032A099001D0072A12
:1008500005DB03464146204600F006FA0BE120780E
:10086000800601D5E06900E00620B8F1650F8146F9
:1008700006D0B8F1660F18D0B8F1670F70D131E02B
:100880000020B9F1110F009001DB112301E009F103
:1008900001030AAA01A90CA8FFF7E2FEDDE90C702A
:1008A000002609F10105834647E001204B460090F0
:1008B0004FF000470AAA01A90CA8FFF7D1FEDDE915
:1008C0000DB00C995D46002610B909F101000D1814
:1008D000B9EB050003D4C0F1FF3609F10105A5EB22
:1008E00009002BE0B9F1010F01DA4FF001090020F6
:1008F000B9F1110F0090484601DD112300E00346D5
:100900000AAA01A90CA8FFF7ABFEDDE90C704D4661
:1009100000268346207800070AD4AB4500DA5D46FE
:1009200001A8012D04DD411911F8011C302907D05F
:100930004F4502DA17F1040F04DA012082460FE076
:100940006D1EEEE7002F02DCED1B3E4403E0781C39
:10095000A84200DD7D1CB81B00F1010A4FF00047E2
:100960002078000703D4AA4501DB4FF0FF3A0021AD
:10097000B7F1004F0DF143088DF8431024D0022049
:100980002B23002F01DA7F422D230A21021EA0F122
:10099000010000DC5FB197FBF1FC97FBF1F201FB7A
:1009A0001C7C17460CF1300C08F801CDEEE7A8F1DD
:1009B000010003702188090501D5452100E065216A
:1009C000A0F1010800F8011C09980FA9A1EB080784
:1009D000FF1D00B10120411901EBEA70A169384403
:1009E000081A401EA0612078C00602D42046FFF7F6
:1009F00045FC099828B1D4E901219047206A401CA0
:100A000020622078C00622D52046FFF737FC1EE082
:100A1000002E04DBB34502DD01A8805D00E030203C
:100A2000D4E901219047206A401C2062761CAAF17B
:100A300001005FEA000A0AD100F0CCF8C068016842
:100A4000405CD4E901219047206A401C2062281EA6
:100A5000A5F10105DCDC07E0D4E9012118F8010B60
:100A60009047206A401C2062381EA7F10107F3DC82
:100A70002046FFF719FC032011B041E601694A1C2A
:100A800002610878704700B58FB0CDE901310021CF
:100A9000059105497944CDE9031011466846FFF7F1
:100AA00079FC0FB000BD0000E5FFFFFF0A6802F807
:100AB000010B0A60704710B5436913B1AFF30080B2
:100AC00001E0FFF702FC012010BD127800F12401C3
:100AD0000A7000224A700122EDE711684FF0FF32E0
:100AE000E9E70000074B70B50D467B44FFF7CBFFED
:100AF0000446284600F0BAF910B14FF0FF3070BD3F
:100B0000204670BDC72200002DE9F04791460F46F0
:100B100080460446002614F8015B2DB100F052F81F
:100B20000068405DC007F6D12B2D02D02D2D18D0C6
:100B3000641E4A463946204600F0D6F827B1396887
:100B4000A14201D1C7F800804FF0020471050BD516
:100B50004042002803DDFFF725FD0460A007BDE843
:100B6000F08746F48066E4E70028F8DAFFF71AFD1C
:100B700004606FF00040F2E72DE9F04115460E46A3
:100B8000040002D12C6804B90BA4204600F082F9BD
:100B90000444207870B127463146384600F06AF99F
:100BA0000444207810B1002004F8010B38462C6072
:100BB000BDE8F0810027F9E7000000000048704719
:100BC0002409002010B500F005F8001D10BD00BF7D
:100BD00089250000004870474409002030B5B0F175
:100BE0000A024FEA900E71F100034EEA817EB0EBEB
:100BF0000E0061EB91014FEA101E4EEA017E10EBF0
:100C00000E0041EB11114FEA102E4EEA016E10EB6F
:100C10000E0041EB11214FEA104E4EEA014E10EB4F
:100C20000E0041EB1141401841F100014FEAD000A4
:100C300040EA41704FEAD10110EB80054FEA810490
:100C400044EA907444EB01046D1944EB0404521B14
:100C5000A3414FF0000348BF0A3200D530BD401C0D
:100C600041F1000130BD00002DE9F0411F4604466E
:100C700003260168072A01F4006004DB08B116A509
:100C800005E016A503E008B115A500E015A521F0C3
:100C900010002060A069C01EA0610FB1401EA061BD
:100CA0002046FFF7EBFA4FB1D4E9012138469047CF
:100CB000206A401C2062C01C206206E0206AFAE71D
:100CC000D4E9012115F8010B9047761EF8D2204691
:100CD000FFF7EAFABDE8F0814E414E006E616E000A
:100CE000494E4600696E66002DE9F05F8246154662
:100CF0008B4600270AF10104B9460078302801D05C
:100D00009DB113E014F8010B0127782803D058286F
:100D100001D045B10AE00DB1102D07D1002714F81C
:100D2000010B102502E0082500E00A250026B04648
:100D30000EE005FB080005FB06F101271FFA80F80D
:100D400001EB1046B6F5803F00D3B94614F8010B0D
:100D5000294600F0D2F80028EBDABBF1000F05D0ED
:100D60000FB1641E00E05446CBF80040B9F1000F0B
:100D700006D0FFF717FC02210160C81EBDE8F09FF6
:100D800048EA0640FAE700002DE9F047814616469A
:100D90008AB0354878440DC88DE80D003248784453
:100DA000801C03AC0DC884E80D0041F69B3008445C
:100DB000372190FBF1F290FBF1F5A5F1800501FBE5
:100DC00012041B3C02D56442012000E00020DFF841
:100DD00098A080460027FA44AAF1BE0A0EE0E00778
:100DE0000AD03246684607EB470101230AEB81012E
:100DF00000F06BFB8DE8070064107F1C002CEED127
:100E0000194F7F44AE3F19E0E80715D007EB0410F7
:100E10000DF1180A90E80E008AE80E00C068F04252
:100E200001D1981908903246012306A903A800F0C1
:100E30004CFB03AB83E807006D10641C002DE3D16D
:100E40004FF0010332466946B8F1000F03A802D003
:100E500000F026FB01E000F038FBC9E90001C9F809
:100E600008200AB0BDE8F08790490000007B00F040
:100E70008000704730B503461D781DB10A4603E077
:100E8000AC4201D1181A30BD12F8014B002CF7D139
:100E90005B1CF1E730B503461D783DB10A4612F8F8
:100EA000014B1CB1AC42FAD15B1CF5E7181A30BDFE
:100EB0007546FFF783FEAE4605006946534620F0AF
:100EC0000700854618B020B5FFF7A4F9BDE820401B
:100ED0004FF000064FF000074FF000084FF0000BF6
:100EE00021F00701AC46ACE8C009ACE8C009ACE8A9
:100EF000C009ACE8C0098D4670473A2800D23038A6
:100F000020F02002412A01D3A2F13700884201D308
:100F10004FF0FF30704710B50446AFF30080204615
:100F2000BDE81040FFF762B94FF0013C50F8042BC8
:100F300051F8043B9A4221D1A2EB0C03934313EAEC
:100F4000CC1317D150F8042B51F8043B9A4215D119
:100F5000A2EB0C03934313EACC130BD150F8042BF0
:100F600051F8043B9A4209D1A2EB0C03934313EAD4
:100F7000CC13DBD04FF00000704700BFD01A01BA8D
:100F8000B1FA81F101F0180122FA01F0CB40C1F170
:100F90002001DBB2C0B2C01A2CFA01F3D11A91437E
:100FA00011EAC311E6D170475FEA400C08BF91F027
:100FB000000F4FEA8C234FEAC12243EA51514FEA16
:100FC0001C5018BF00F5F0404FEA300018BF41F048
:100FD00000415FEA6C5C00F02980BCF1FF3F08BF74
:100FE00040F080407047130C06BF12044FF0100C05
:100FF0004FF0000C130E04BF12020CF1080C130F7B
:1010000004BF12010CF1040C930F04BF92000CF109
:10101000020CD30F04BF52000CF1010C11464FF02B
:101020000002A0F11F00A0EB0C00704711F0004F70
:1010300008BF704731F000413FF4D5AF0B0C06BF3D
:1010400009044FF0100C4FF0000C0B0E04BF090206
:101050000CF1080C0B0F04BF09010CF1040C8B0FF1
:1010600004BF89000CF1020CCB0F04BF49000CF146
:10107000010CCCF12003A0EB0C0022FA03F302FADE
:101080000CF241EA030100F10100704720F07F4CAF
:1010900080EA030023F07F47ACEB070303F57C53A2
:1010A00000F0004003F1FF032DE980494FEA154BA2
:1010B00009B44FEA144325EA0B4E24EA03480FF221
:1010C000042606EB132749083E785FEA320203FB49
:1010D0000667C7F5000707FB06F64FEA54374FEAE5
:1010E000D64606F1020607FB066CCCF1005C4FEA1F
:1010F0001C472CEA074C07FB06F40CFB06F504EB37
:1011000015464FEA961634BF00204FF000404FEAD4
:10111000D13706FB07FC4FEA1C4C0CFB0BF7D21B2C
:1011200003FB0CF761EB07010CFB0EF7B0EB07407C
:1011300072EB17420CFB08F734BFA2EB0742B2EB8D
:10114000074261EB17414FEA0C444FEA910706FB57
:1011500007FC4FEA1C4C0CFB0BF7B0EBC74072EBE3
:10116000573203FB0CF734BFA2EBC742B2EBC742C6
:1011700061EB57310CFB0EF7B0EBC70072EB577207
:101180000CFB08F734BFA2EBC702B2EBC70261EB5E
:101190005771039F4FEA816141EA921104EBCC043D
:1011A0004FEAD1374FEA826206FB07FC42EA90120F
:1011B0004FEA80604FEA1C4C0CFB0BF7D21B03FB81
:1011C0000CF761EB07010CFB0EF7B0EB074072EB7D
:1011D00017420CFB08F734BFA2EB0742B2EB074201
:1011E00061EB17414FEA8C554FEA910704EB9C24C1
:1011F00006FB07FC4FEA1C4C0CFB0BF7B0EBC7409F
:1012000072EB573203FB0CF734BFA2EBC742B2EBD1
:10121000C74261EB57310CFB0EF7B0EBC70072EB26
:1012200057720CFB08F734BFA2EBC702B2EBC70240
:1012300061EB577115EB4C254FEA816141EA921140
:101240004FEA82624FEAD13742EA901206FB07FC6E
:1012500044F100044FEA80604FEA1C4C0CFB0BF792
:10126000D21B03FB0CF761EB07010CFB0EF7B0EB95
:10127000074072EB17420CFB08F734BFA2EB0742A2
:10128000B2EB074261EB174115EB1C154FEA8131B8
:1012900041EA92414FEA823242EA90424FEA80307C
:1012A0004FEA0C7644F1000448EA03434EEA0B4847
:1012B0004FF0000EB2EB080C71EB030724BF62463F
:1012C00039464EEB0E0E4FF0000B001852414941CB
:1012D0004BEB0B0BB2EB080C71EB03077BF1000B34
:1012E00024BF624639464EEB0E0E4FF0000B00183D
:1012F000524149414BEB0B0BB2EB080C71EB03076E
:101300007BF1000B24BF624639464EEB0E0E51EACC
:10131000020718BF46F0010616EB0E7655F10002E3
:1013200054F1000103D5BDE88901BDE80088BDE89E
:101330008901BDE80048B619524141EB0101A3F112
:101340000103704780807F7E7D7C7B7A7978777619
:1013500076757473727171706F6E6E6D6C6C6B6A92
:101360006A69686867666665646463636261616030
:10137000605F5F5E5E5D5D5C5C5B5B5A5A595958AD
:101380005857575656555555545453535252525117
:10139000515050504F4F4F4E4E4D4D4D4C4C4C4B6D
:1013A0004B4B4A4A4A4949494848484747474746B4
:1013B00046464545454444444443434343424242F0
:1013C00042414141002B9C4630D477002BD01CB5C4
:1013D0004FEA370703B44FF010004FF01001BAF195
:1013E000000F06D0BCF1000FDCBF40F0080040F059
:1013F00008014FF000000FBCBDE810400BF1010BDD
:10140000BBF1010F08BF5FEA170722BF12F101020B
:1014100011F101014FF0004143F1000300F00040E1
:1014200043EA00007047F9D35708D0E746EA06467A
:1014300013F1400F4FEA16461FDD13F1200FDFBFF7
:1014400016430A46002120335B42BED0C3F1200779
:1014500046EA064602FA07F74FEA164646EA070644
:10146000C3F1200722FA03F201FA07F721FA03F188
:101470004FF0000342EA0702A7E746EA020646EAFF
:1014800006464FEA164646EA0106BCBF46EA06464D
:10149000360C4FF000034FF000024FF0000194E7CC
:1014A0002DE9804C9A46934670B491E8380007C8FD
:1014B00031EA400C48BF34EA430C03D5FFF7E6FDA0
:1014C000FFF780FFF0BCBDE8008C2DE9804C9A4608
:1014D000934670B491E8380007C810F0804F08BFF9
:1014E00013F0804F03D100F005F8FFF76BFFF0BC5D
:1014F000BDE8008C20F07F4780EA030023F07F4C9A
:1015000007EB0C03A3F57C5300F00040A3F1FE03AE
:1015100092F0000F00F0B38095F0000F00F077809C
:101520002DE901494FEA11404FEA144621EA0048EB
:1015300000FB06FC24EA064708FB06F607FB08F852
:1015400000FB07F718EB06484CEB164C4FEA124B22
:1015500018EB07484FEA15464CEB174022EA0B4EB2
:101560000BFB06FC25EA06470EFB06F607FB0EFE04
:101570000BFB07F71EEB064E4CEB164C4FF000062C
:101580001EEB074E4CEB174B18EB0B0840F100001D
:1015900018EB0E0B58EB000840F100008F1A4FF0CB
:1015A00000013CBFC943661B14BFB5EB040C00210E
:1015B0003CBFC943F61B4FEA17444EEA8E0E27EA9A
:1015C00004454FEA1C4704FB07622CEA074C05FB65
:1015D00007F70CFB05F604FB0CFC16EB074642EB89
:1015E000174216EB0C4642EB1C421BEB060658EB6F
:1015F0000202414146EA9E0601D5BDE80189B619BD
:10160000524141EB0101A3F10103BDE801894FEA19
:1016100014454FEA114724EA054621EA074C05FB29
:1016200007F406FB07F70CFB06F105FB0CFC11EBBE
:10163000074144EB17444FEA124711EB0C4144EBCE
:101640001C4422EA074C05FB07F206FB07F70CFBDC
:1016500006F605FB0CFC16EB074642EB174216EBB1
:101660000C4642EB1C456A1854F1000148BF704714
:10167000B619524141EB0101A3F10103704795F006
:10168000000F37D04FEA11424FEA144721EA0246D1
:1016900024EA074C02FB07F106FB07F70CFB06F4F4
:1016A00002FB0CFC14EB074441EB17414FEA1547D2
:1016B00014EB0C4441EB1C4125EA074C02FB07F5F7
:1016C00006FB07F70CFB06F602FB0CFC16EB0746C5
:1016D00045EB174516EB0C4645EB1C42121951F130
:1016E000000148BF7047B619524141EB0101A3F117
:1016F000010370474FEA14454FEA114724EA0546B3
:1017000021EA074C05FB07F106FB07F70CFB06F285
:101710004FF0000605FB0CFC12EB074241EB1741B2
:1017200012EB0C4251EB1C4148BF7047921841EB41
:101730000101A3F1010370470029816802D041F043
:10174000010101E021F00101816070470D4910B5F0
:10175000884202D1012144150AE00B49884202D196
:101760000121041504E0094988420AD10121CC0372
:10177000204600F03DFE2046BDE81040002100F06C
:1017800037BE10BD0024014000280140003C01404C
:10179000014600208968490700D501207047C06CC8
:1017A00080B270470246002012680A4200D0012031
:1017B0007047014600208968090700D5012070475D
:1017C00010B542680E4B0C791A400B6842EA0422AD
:1017D0001343436082680B4B1A40D1E90243234311
:1017E0004C7942EA440213438360C26A097C22F4C2
:1017F0007002491EC9B242EA0151C16210BD000027
:10180000FFFEF0FFFDF7F1FF70B5072609290AD9A1
:10181000C568A1F10A0404EB4404A640B543A34003
:101820001D43C56007E0056901EB4104A640B543CF
:10183000A3401D4305611F23072A09D2446B521E92
:1018400002EB820293409C4391400C43446370BD81
:101850000D2A09D2046BD21F02EB820293409C43F3
:1018600091400C43046370BDC46A0D3A02EB8202DE
:1018700093409C4391400C43C46270BD816841F029
:101880000801816070470029816802D041F4A001FD
:1018900001E021F4A00181607047816841F00401FA
:1018A0008160704730B587B001214FF4017000F0BE
:1018B00093FD4FF4004000F079FD0220ADF81400D4
:1018C00000248DF8174005A9164800F01FF9164DA1
:1018D0002846FFF73BFF4FF46020CDE902040120CA
:1018E0008DF804408DF8100000948DF8054069468D
:1018F0002846FFF765FF01212846FFF71DFF284610
:10190000FFF7BCFF2846FFF754FF0028FAD128460E
:10191000FFF7C3FF2846FFF73BFF0028FAD107B0C7
:1019200030BD0000000801400024014038B501210D
:10193000082000F051FD2020ADF8000010208DF8A7
:1019400003000320054C8DF802006946204600F094
:10195000DDF82021204600F030F938BD000C0140B0
:10196000FEE700007CB501F001F9012848D1254DC2
:10197000A87808B1287818B91520A8705B202870BD
:101980000124102320A230210F20009400F0D4FC69
:1019900010231EA230211720009400F0CDFC102649
:1019A000CDE90064AA78022330211F2000F040FC1A
:1019B000102317A230212F20009400F0BDFC10232B
:1019C00014A230213D20009400F0B6FC10230FA299
:1019D00030214E20009400F0AFFCCDE900642A785D
:1019E00002233021562000F023FC10230AA23021CC
:1019F0006620009400F0A0FCBDE87C4000F018BB1D
:101A00007CBD00004C000020740000003D00000080
:101A1000430000002068000025000000704710B55A
:101A2000012000F017F801280CD101F009FA4FF459
:101A3000E16001F067F801F0FBF9BDE8104001201A
:101A400000F002B810BD00000149086070470000B6
:101A500014040140064A014600201268044B0A4063
:101A600014331B680B4202D0002A00D001207047BB
:101A70000004014030B51A4A8379016853B31368F2
:101A80008B431360111D0B680468A3430B6001793D
:101A900011440B68046823430B60114B0833196829
:101AA0000468A14319601C1D21680568A9432160D1
:101AB0004179102905D011440A68006802430A6080
:101AC00030BD19680268114319602168006801433C
:101AD000216030BD0079104402688A43026030BD45
:101AE0000004014010B58A0721F003040649120FD3
:101AF00021440F238C6893409C438C608B689040FA
:101B000003438B6010BD000000000140F0B5CC78AD
:101B1000002204F00F03E40601D58C7823430C78EF
:101B20004FF00F0C14F0FF0F4FF0010E1BD00568A3
:101B30000E880EFA02F42640A64210D196000CFA46
:101B400006F725EA070703FA06F5CE783D43282E67
:101B500002D0482E02D002E0446100E00461521C31
:101B6000082AE5D305600A88FF2A1CD944680022A8
:101B700002F108060EFA06F50E882E40AE420ED18E
:101B800096000CFA06F7BC4303FA06F7CE783C43FE
:101B9000282E00D14561CE78482E00D10561521C17
:101BA000082AE5D34460F0BD0246002092680A424C
:101BB00000D001207047416170470161704700000B
:101BC00010B50B4C0146072301222046FFF71CFEEF
:101BD00001212046FFF757FE02212046FFF7E2FDD4
:101BE0000028F9D02046BDE81040FFF7D8BD00001E
:101BF000002401402DE9F04100250E4607462C4601
:101C000008E03846FFF7DCFF0544052000F07AFFC6
:101C1000641CE4B2B442F4D3B5FBF6F001F024FC4A
:101C2000084C0146A060084801F0FEFC074901F09D
:101C30003DFB074901F02CFC01F0FAFB606080B22B
:101C4000BDE8F0814000002000F07F4500404E4597
:101C50000000C84210B54FF4E134204601F0F8F816
:101C6000204601F0D7F9FFF71DFE01F00DF800F056
:101C700061F800F091F800F0ABF801F0D9F800F04D
:101C80002DF900F0FFF800F083FC01F0D1F8BDE879
:101C90001040FFF74BBEFEE710B50C4C80212046EC
:101CA000FFF78BFF40212046FFF787FF00F03CF84D
:101CB00080212046FFF77FFF00F036F840212046C4
:101CC000FFF779FFBDE8104000F02EB8000C01408E
:101CD00010B5084C80212046FFF76DFF40212046BB
:101CE000FFF76BFF00F020F82046BDE81040802190
:101CF000FFF763BF000C014010B50A4C802120465D
:101D0000FFF75BFF00F010F840212046FFF755FF7A
:101D100000F00AF840212046FFF74DFFBDE81040D3
:101D200000F002B8000C01400320401EC0B2FCD2FB
:101D30007047000070B50121042000F04DFB1448ED
:101D4000012448210480C170032585700146114893
:101D5000FFF7DCFE0121084600F03EFB00210846AB
:101D6000FFF7C0FE0A4800210830046001710C2111
:101D700041718471FFF77EFE05480621001D017048
:101D800045708570C470BDE8704000F03FB8000039
:101D9000140000200008014038B50121102000F097
:101DA0001BFB4FF40054ADF8004010208DF80300E9
:101DB0000320064D8DF8020069462846FFF7A6FE6F
:101DC00021462846FFF7F9FE38BD0000001001400B
:101DD00008B50121042000F0FFFA4FF48070ADF83F
:101DE000000010208DF8030003208DF802006946E2
:101DF0000348FFF78BFE03490120C1F8A00108BD8D
:101E00000008014000002142FEE7704730B50F2373
:101E1000C27801780125F2B1144A126801F1E0217B
:101E200002F4E062C2F5E062120AC2F10404D34097
:101E30004278A24084781C401443220181F8002497
:101E4000007800F01F018D404009800000F1E02083
:101E5000C0F8005130BD01F01F00854048098000E6
:101E600000F1E020C0F8805130BD00000CED00E032
:101E70000249084302490860704700000000FA0563
:101E80000CED00E030B40021084B0A46002003EBC3
:101E9000C004401CC0B262548028F8D3491CC9B2A7
:101EA0000829F3D330BC00F0C3B80000740400204C
:101EB00030B5CC0801F0070301259D40EBB2064D7B
:101EC00005EBC005C808285C0AB1184302E063EAC4
:101ED0000000C043285530BD7404002038B50121EE
:101EE000082000F079FAC020ADF8000014208DF829
:101EF0000300494D03248DF8024069462846FFF748
:101F000005FEC0212846FFF758FE0420ADF800006A
:101F100010208DF803008DF80240404C69462046A1
:101F2000FFF7F4FD04212046FFF747FE0421204679
:101F3000FFF741FEC82000F0E5FD04212046FFF731
:101F40003CFE0021AE2000F015FA0021084600F00A
:101F500011FA0021102000F00DFA0021402000F0BD
:101F600009FA0021812000F005FA0021CF2000F0BD
:101F700001FA0021A12000F0FDF90021C82000F0A5
:101F8000F9F90021A62000F0F5F90021A82000F0C1
:101F9000F1F900213F2000F0EDF90021D32000F0FD
:101FA000E9F90021084600F0E5F90021D52000F00C
:101FB000E1F90021802000F0DDF90021D92000F0B6
:101FC000D9F90021F12000F0D5F90021DA2000F044
:101FD000D1F90021122000F0CDF90021DB2000F022
:101FE000C9F90021302000F0C5F90021202000F0BF
:101FF000C1F90021022000F0BDF900218D2000F080
:10200000B9F90021142000F0B5F9FFF73BFF0021DA
:10201000AF2000F0AFF938BD000C014000080140CE
:102020000346012000E05843491EC9B2FBD2704765
:1020300070B5174E002505F1B000C0B2002100F0C8
:1020400099F90021084600F095F90021102000F0D0
:1020500091F9FFF721FE782000F022FAFFF74CFEFD
:10206000402000F01DFAFFF747FE002406EBC400F5
:10207000405D00F015FAFFF73FFE641CE4B2802CCF
:10208000F4D3FFF725FE6D1CEDB2082DD3D370BD40
:10209000740400202DE9FC4F1D46884681468B467E
:1020A0000090082B0DD0680700D0012000EBD50070
:1020B00069084843C0B2203A02F0FF0A00260190A6
:1020C00046E00620F7E7082D10D00C2D14D0102D77
:1020D00016D0182D3FD122490AEBCA0001EB80002F
:1020E0000027845DE0070FD00B9A10E01D490AEB32
:1020F0004A0001EB4000F3E70AEB4A001A49EDE71A
:102100001A4901EB0A10EBE70B9830B30022414665
:102110004846FFF7CDFE7F1C640808F10100FFB2BE
:1021200000F0FF08082FDDD309F1010000F0FF09DE
:10213000082D0AD00099A9EB0100B0EB550F04D18E
:102140000BF10800894600F0FF0B761CD846F6B26A
:1021500001988642B7D3BDE8FC8F0122D7E7000083
:10216000A2430008163700083E390008B23D0008B7
:102170002DE9FC4F814600901E46924688468B46CC
:10218000580700D0012000EBD600704300250190D5
:1021900040E0102E0ED0182E10D0202E14D0402E3D
:1021A0003BD1204901EB4A200027445DE00710D0D5
:1021B0000B9A11E01C4901EB4A10F5E71B490AEBA9
:1021C000CA0001EBC000EFE71649803901EBCA10E5
:1021D000EAE70B9818B3002241464846FFF768FE2D
:1021E0007F1C640808F10100FFB200F0FF08082F0F
:1021F000DCD309F10100009900F0FF09A9EB01000F
:10220000B04204D10BF10800894600F0FF0B6D1CB1
:10221000D846ADB201988542BBD3BDE8FC8F012200
:10222000DAE7000056540008FE500008FE5200088D
:102230002DE9F84F0025DDE90A691F4692468B46D5
:102240008046082E00D1022500241CE0381B401EC9
:10225000C1B20A20FFF7E4FEBAFBF0F00A21B0FB9E
:10226000F1F201FB1200CDF8009080B13030C2B223
:1022700005EB560101FB0480C0B233465946FFF717
:1022800009FF641CE4B2BC42E0D3BDE8F88F05EB63
:10229000560101FB0480C0B233463022EEE72DE93F
:1022A000FF4F81B0064600900F464FF0000A894666
:1022B000580700D0012000EBD3000490002032E04A
:1022C000002029E00E98002410F80A500AF10100BD
:1022D0001FFA80FAE80701D00F9A02E00F9848B37E
:1022E000002239463046FFF7E3FD7F1C641C6D0871
:1022F000E4B2FFB2082CEDD3761C0098F6B2311A86
:102300000398814204D109F10800009E00F0FF0902
:1023100008F101004F46C0B2039980468842D1D3EC
:102320000BF10100C0B2049983468842C8D305B0BE
:10233000BDE8F08F0122D4E72DE9F8411E4615468D
:1023400088460446079F0BE03346414620460097E7
:10235000FFF7A0FE082E0AD004EB5600C4B26D1C95
:102360002A78A2F120005E28EED9BDE8F881A41DEC
:10237000E4B2F4E770B50C460546FFF78DFC782013
:1023800000F08EF8FFF7B8FC0CB1402000E0002010
:1023900000F086F8FFF7B0FC284600F081F8FFF760
:1023A000ABFCBDE87040FFF793BC7047034A51682F
:1023B00021F4404101435160704700000010024089
:1023C000044A0029D16901D0014300E08143D16171
:1023D0007047000000100240044A0029916901D0B2
:1023E000014300E08143916170470000001002400A
:1023F000044A0029D16801D0014300E08143D16043
:10240000704700000010024030B5204A5168204B50
:1024100011F00C0103D0042901D0082901D0036078
:1024200012E05168536801F470114FF0020413F484
:10243000803F04EB914102D053689B0301D5154BBB
:1024400000E0134B5943016051680F2303EA111157
:10245000114B5C5C0168E14041605468072505EA66
:1024600014241C5D21FA04F48460546805EAD42421
:102470001B5DD940C1605268032303EA9232064BC8
:102480001B1F9A5CB1FBF2F1016130BD00100240EC
:1024900000127A0000093D005E0400207047000031
:1024A00070B5104E0546002428064FF080013046D6
:1024B00002D5FFF782FB01E0FFF77DFBFFF734FC5D
:1024C00040213046FFF779FBFFF72EFC40213046D4
:1024D000FFF771FB6806641C050EE4B2082CE3D319
:1024E00070BD0000000C01400CB50022264800928F
:1024F0000192016841F4803101604FF4A0630168EA
:1025000001F4003101910099491C0091019911B920
:1025100000999942F3D10168890333D501210191D2
:102520001A490A6842F010020A600A6822F003029F
:102530000A600A6842F002020A604168416041682C
:102540004160416841F480614160416821F47C113F
:102550004160416841F4E8114160016841F08071D7
:10256000016001688901FCD5416821F003014160E7
:10257000416841F0020141604168C1F381010229D3
:10258000FAD10CBD01920CBD0010024000200240A7
:1025900038B5FFF777FC0124102324A20E211C205C
:1025A0000094FFF7C9FE002210232021104600945A
:1025B000FFF7DEFD10230122202118460094FFF7CB
:1025C000D7FD20211023022208460094FFF7D0FDFA
:1025D00010230322202130200094FFF7C9FD10238F
:1025E0000422202140200094FFF7C2FD1023052281
:1025F000202150200094FFF7BBFD1023062220214C
:1026000060200094FFF7B4FD1023072220217020E2
:102610000094FFF7ADFDFFF70BFD4FF4E16000F014
:1026200071FABDE83840FFF72DBC000044657369BE
:10263000676E20627900000070B54FF47A718842AD
:102640000FD00A490A4DB1FBF0F40120C5F89401FE
:10265000204605F5CA7500F06FFA00202860204674
:1026600000E00846BDE8704000F066BA20A107000F
:10267000008021424FF0E0210428086903D020F0B7
:1026800004000861704740F00400FAE7704700005A
:102690000F4810B5016841F00101016041680D4A21
:1026A0001140416001680C4A11400160016821F449
:1026B00080210160416821F4FE0141604FF41F0157
:1026C0008160FFF711FF05494FF00060086010BD01
:1026D000001002400000FFF8FFFFF6FE08ED00E0EA
:1026E00070B5154D40F225542146284600F07EF87D
:1026F000012820D1284600F007F9C1B210480F4B3D
:1027000042689954521C4260232901D0202A03D3E5
:102710000022426001220260284600F0F9F8802180
:10272000284600F05CF80028F9D021462846BDE88C
:10273000704000F044B870BD00380140F40800203B
:102740002400002070B5184C40F22555294620463B
:1027500000F04CF8012825D1204600F0D5F8144AA5
:10276000C1B2124B90681954401C9060232901D0CB
:10277000202803D300209060012010600D4E3046C9
:1027800000F0C6F88021304600F029F80028F9D082
:102790008021304600F010F829462046BDE8704000
:1027A00000F00DB870BD000000440040F4080020A7
:1027B0002400002000380140C943018070470A0A04
:1027C00001219140C943018070470029818902D0CD
:1027D00041F4005101E021F400518181704702462B
:1027E000002012880A4200D00120704770B501F025
:1027F0001F0501260024C1F3421306FA05F2012B3E
:102800000FD0022B0FD0838A4FEA11210088134288
:1028100006FA01F600EA060001D000B101242046C4
:1028200070BD8389F0E7038AEEE710B5C1F3421368
:1028300001F01F040121A140012B07D0022B07D07A
:102840001430002A026805D00A4304E00C30F8E78F
:102850001030F6E78A43026010BD000030B5044630
:10286000008A85B00D464CF6FF710840E9880143A7
:102870002182A0894EF6F3110840A9882A891143C4
:102880006A8902431143A181A08A4FF6FF410840A3
:10289000A9890143A1826846FFF7B6FD1948844221
:1028A00001D1039800E00298A189090400EBC0015E
:1028B00001EB0010296801D5490000E08900B0FB58
:1028C000F1F06422B0FBF2F109010B096FF0180579
:1028D0006B4300EB8300A3891D044FF0320306D540
:1028E00003EBC000B0FBF2F000F0070005E003EBE3
:1028F0000010B0FBF2F000F00F000843208105B09B
:1029000030BD0000003801408088C0F308007047E7
:10291000C1F3080181807047FEE7490050EAC120F9
:1029200018BF04204A0D18BF40F0010040F2FF72AA
:10293000B2EB515F08BF40F00200012808BF05203C
:10294000704730380A2801D20120704700207047B4
:10295000704700002DE9FC410A210120FFF74AF9E8
:102960002E4D014628602EA0FDF768FC4FF4FA7743
:10297000384600F0C7F801241023082200210A205D
:102980000094FFF7F5FB1023092200211A20009480
:10299000FFF7EEFB10230A2200212A200094FFF704
:1029A000E7FB10230B2200213A200094FFF7E0FB05
:1029B00010231FA200214C200094FFF7BDFC10261D
:1029C000CDE900640223002156202A68FFF730FC7D
:1029D000102318A200216A200094FFF7ADFC1023F9
:1029E00015A219210A200094FFF7A6FC102315A2B6
:1029F00019215A200094FFF79FFC1348CDE9006489
:102A00000268022319216420FFF712FCFFF710FB74
:102A10003846BDE8FC4100F075B8000040000020D9
:102A2000CDC1C8C0CAAAB6C8A3BA25640D0A0000A1
:102A30003A0000002500000077617465725F7365DD
:102A4000740000003D000000380000202DE9F04334
:102A50008DB01C2215496846FDF748FD14A007AB50
:102A600007C883E8070015A00DF1280907C889E801
:102A70000700082600246F469846002503E0FFF76C
:102A8000DBFD6D1CADB218F8040019F8041037F81E
:102A900010004143B1FBF6F1A942F0D8641CA4B286
:102AA000092CEAD30DB0BDE8F0830000745600088D
:102AB0000D010203040506070800000002020202DD
:102AC000020202020200000010B56FF00400FFF7DE
:102AD000D1FD094809490068B0FBF1F00849C0B2CE
:102AE00000EB40020870C2EBC0104FF6FF7202EA22
:102AF000C000488010BD00000000002000127A00D5
:102B0000560400200B49498848434FF0E0214861B2
:102B100000238B61086940F0010008610869C20761
:102B200001D0C003FAD5086920F0010008618B616B
:102B300070470000560400200B49097848434FF0C5
:102B4000E021486100238B61086940F001000861C1
:102B50000869C20701D0C003FAD5086920F0010056
:102B600008618B6170470000560400202DE9FC418C
:102B7000214800F0C9F8012805D020A0FDF75EFB30
:102B80000020BDE8FC811C48411F06780E70447887
:102B90004C7085788D70C078C87000F065FCDFF8E7
:102BA0007080414600F082FB0746284600F05CFC3E
:102BB000394600F019FB00F0EBFA05460F462046B7
:102BC00000F052FC414600F071FB0446304600F034
:102BD0004BFC214600F008FB00F0DAFACDE9005783
:102BE00002460B460BA0FDF729FB4FF47A70FFF766
:102BF00089FF0120C5E7000051000020B6C1C8A12F
:102C0000CEC2CAAAB6C8B4EDCEF30D0A00000000C9
:102C100000002041CAAAB6C8A3BA25332E326620C6
:102C2000252520CEC2B6C8A3BA25332E326620A1F0
:102C3000E60D0A0008B501210820FFF7CDFB4FF48F
:102C40008070ADF8000004208DF80300694602484A
:102C5000FEF75CFF08BD0000000C014008B5012133
:102C60000820FFF7B9FB4FF48070ADF80000032097
:102C70008DF8020010208DF8030069460148FEF728
:102C800045FF08BD000C014010B501210820FFF7E9
:102C9000A3FB04480021017041708170C170017173
:102CA00010BD00004C00002070B50E4D4FF4807434
:102CB00021462846FEF778FF0028F9D02820FFF7A4
:102CC0003BFF21462846FEF76FFF012801D0002078
:102CD00070BD21462846FEF767FF0128F9D0012084
:102CE00070BD0000000C014070B5002004464FF696
:102CF000FF7606EA4005FFF7D7FF641C2843A4B21D
:102D0000082CF6D370BD000070B5054600F030F811
:102D100000F048F838BB00F045F80028FBD000F080
:102D200041F80128FBD00024FFF7DEFF2855641C82
:102D3000A4B2052CF8D300F035F80028FBD0FFF73B
:102D40008DFF4FF480710948FEF737FF28786978C6
:102D5000EA780844A978114408442979C0B281422C
:102D600001D0002070BD012070BD0000000C0140AA
:102D700070B5FFF773FF0A4D4FF480742146284663
:102D8000FEF719FF1320FFF7BDFE21462846FEF788
:102D900014FF1E20FFF7D0FEBDE87040FFF74ABFCA
:102DA000000C01404FF480710148FEF7FDBE0000A9
:102DB000000C014070B5094D044681B22846FFF76A
:102DC000A7FD80212846FFF70AFD0028F9D08021C1
:102DD0002846FFF7F1FC204670BD00000038014096
:102DE000FFF772FEFEF736FF0A4C0BA02168FDF7D5
:102DF00025FA002000F070F9FFF7ACFDFEF7B2FDF8
:102E000000F072F808A02168FDF718FAFFF7A2FD9C
:102E10002068EFE73800002077617465725F7365A2
:102E2000743D25640D0A000025640D0A00000000B1
:102E300002490120C1F8A0017047000000002142B2
:102E400002490020C1F8A0017047000000002142A3
:102E500070B50546012144F20400FFF7BDFA1E4C8F
:102E60004FF400701D4E20801820E0700320A070E9
:102E700021463046FEF74AFE301520800420E070DF
:102E800021463046FEF742FE154900240C200D6015
:102E90008C80CC800C818C81124D48812846FFF7B4
:102EA000DDFC012240F225512846FFF7BEFC4FF41D
:102EB000E060FEF7DDFF08492520091D08708C70D1
:102EC0000120C8700846FEF7A1FF2846BDE8704003
:102ED0000121FFF77ABC000030000020000801400B
:102EE000140900200038014030B589B0202168461F
:102EF000FDF72EFB2B4D2868002850D029682AA00A
:102F0000FDF79CF92AA12C48FDF7DEFA38B32BA176
:102F10002948FDF7D3FA014629A0FDF78FF927A12B
:102F20000020FDF7CBFA0446014625A0FDF786F9FF
:102F30002046FDF7B6FAC4B2204600F0CDF821468F
:102F400021A06C61FDF77AF9224620A16846FDF7C1
:102F500081F9684600F0A8F86846FDF76FF920A1EE
:102F60001548FDF7B1FA0024A0B11FA11248FDF7E2
:102F7000ABFA20B1FFF76AFD1CA0FDF75FF91FA1B6
:102F80000D48FDF7A1FA28B11D48C0F894411DA0D5
:102F9000FDF754F92C6020210748FDF7D9FA09B054
:102FA00030BD00002400002025640D0A0000000050
:102FB0007368696475000000F40800203D0000009B
:102FC00025730D0A00000000256400007368696421
:102FD0007520736574202564206F6B0D0A00000056
:102FE00062656570000000006F6E000062656570CC
:102FF000206F6E206F6B0D0A000000006F66660088
:103000000080214262656570206F6666206F6B0DDF
:103010000A0000002DE9F041064601210420FFF7D7
:10302000DBF901214804FFF7CBF91B4C04251820DC
:103030002580E0700320194FA07021463846FEF726
:1030400065FD08202080E57021463846FEF75EFDCC
:10305000134900240C200E608C80CC800C818C8164
:10306000104D48812846FFF7F9FB012240F2255117
:103070002846FFF7DAFB08492620091D08708C70E6
:103080000120C8700846FEF7C1FE2846BDE8F041A1
:103090000121FFF79ABB000030000020000801402A
:1030A000140900200044004070B50446094D0DE0AD
:1030B0002846FFF72DFC80212846FFF790FB0028CB
:1030C000F9D080212846FFF777FB641C217800297E
:1030D000EED170BD004400407CB5114909688142C1
:1030E0001CD201250F48CDE9000500214023802294
:1030F0000846FFF7D4F8FEF79BFFFFF7A7FC0A4C42
:103100000020C4F8A0014FF4E16004F5D074FFF78B
:10311000F9FC2560BDE87C40FEF7B4BE7CBD000034
:1031200040000020560000200000214210B5002978
:103130000AD00878002807D005487844FDF7F4FE47
:10314000002801D0002010BD0248784410BD0000C6
:10315000262600001E26000010B500290AD0087897
:10316000002807D005487844FDF7DEFE002801D08E
:10317000002010BD0248784410BD00001626000053
:103180000E2600000808A0F500114FEA3101704733
:1031900043004FEAD30C4FEA3C0C43401FBF4007AB
:1031A0000CF1605113F0FE4F70471CF0006F03D11B
:1031B00000200CF0004170470CF0004343EA5070CF
:1031C00010B540EACC0000F0E4F900BF0000009226
:1031D0004FEA0001FFF7D6BF4FF000414FF000006B
:1031E000A1F500217047000090EA010F48BF81F06F
:1031F000004100F12082421A3CBF801A89184FEA30
:10320000D0524FF07F4C1CEA410FA2EBD15318BFB4
:103210009CEA026F00F03B804FF0004C4CEA00202B
:103220004CEA012121FA03FC10EB0C0C1ED202F136
:10323000FF325FEA1C2040EBC25038BF70471CF0E1
:103240007F0F4FEA400C18BFBCF17F4F38BF70476B
:10325000C3F12003994008BF20F00100BCF17F4F6B
:1032600038BF7047A0F1C04000F0D9B94FEA3C0028
:10327000000A40EBC25028BF1CF0FF0F4FEA400C81
:10328000E6D018BFBCF17F4F38BF7047EAE79CEA31
:10329000026F05D010EA5C0F08BF00F000407047D5
:1032A00010B500F076F900BF64FBBE3E4FF47F0C12
:1032B0001CEAD0121EBF1CEAD11392EA0C0F93EA4B
:1032C0000C0F00F0858090EA010F48BF42F4807235
:1032D00040F4000C41F400002CF07F4120F07F40CE
:1032E00000B58142A2EB03020FF2081CACEB504E7A
:1032F000C0F100009EF800E04FEA4E0E00FB0EFC0D
:1033000038BF49004FEA2C1C02F5FA020CFB0EF301
:103310004FEACE1E4FEA112C4FEAC1210EEB635E3D
:1033200042EB22420EFB0CFC4FEA1C5300FB031144
:103330004FEA112C4FEA01310EFB0CFC4FEADC4C3A
:1033400000FB0C11C14228BF09184CEB03335DF898
:1033500004EB10EB410143EBC250B2F57C0F38BFD8
:10336000704729D512F0F00F1CBF00F1C04000F0EB
:1033700000407047008182838485868788898B8C92
:103380008D8E8F919293959697999A9C9D9FA0A2CE
:10339000A3A5A7A8AAACAEB0B2B3B5B7B9BCBEC01E
:1033A000C2C5C7C9CCCED1D4D7D9DCDFE2E6E9ECBF
:1033B000F0F3F7FAFE0000004FEA400C0CF1807CBD
:1033C000BCF17E4F28BF7047B0F1C04000F027B974
:1033D00090EA010F0CEAD11348BF42F480726245B3
:1033E00038BF634507D213F47F0F16D080EA01007F
:1033F00000F00040704710B500F0CBF8097EFC3EAD
:1034000000F005B880EA010000F00040704780EA53
:10341000010000F0004000F002B912F47F0F04BF79
:103420000248704780EA010000F0F9B80000C07F50
:1034300041000B0ED3F19E0208D950F400034FEA6D
:10344000032323FA02F048BF4042704710B500F052
:10345000A0F800BF49922480002070476FF000421E
:1034600082EA200070470000B0FA80F310FA03F2FD
:10347000C3F19D030AD0D90501EB1220530638BFD2
:10348000704700F1010008BF20F001007047000004
:103490004FF47F0C1CEAD0121EBF1CEAD11392EA33
:1034A0000C0F93EA0C0F00F0478090EA010F48BF21
:1034B00042F480724FF0004C4CEA00204CEA0121AB
:1034C00002EB0302A0FB0113A2F50002002918BFC2
:1034D00043F001035B0028BF4FEA330342EB224273
:1034E0005FEA132C4CEBC2502EBFBCEB436FB2F51E
:1034F0007C0F70474FEA036CBCF1004F08BF20F00F
:103500000100B2F57C0F38BF70470BD582F0FF0287
:1035100012F5803FC8BF704700F1C040D8BF00F02F
:103520000040704700F5000C5FEA4C0C48BF704744
:10353000B0F1C04000F073B890EA010F0CEAD1136B
:1035400048BF42F48072624538BF634504D280EAC6
:10355000010000F00040704710B500F01AF800BFFD
:103560008900013E00F007B800F009B85FEA410C9D
:103570005FEA1C6C08D080EA010000F050B85FEAF6
:10358000400C5FEA1C6CF6D14FF00040A0F58000C3
:1035900070470EF1020E2EF0030E5EF8044B24422B
:1035A00004D44FEA4102B2F17F4F11D84FEA4003F1
:1035B000B3F17F4F0CD80ED14FEAD07CB2F17F4FE0
:1035C0000CEB4C0C0CF1020C08BF4CEBD17C04E072
:1035D0004FF0080C01E04FEAD17C0CEB4C0324FACD
:1035E00003F404F00704B4F1040C06D20EEB840CCF
:1035F000BDE810404CF0010C6047DFE80CF0070814
:1036000002024FF00040A0F5800010BD08464200C5
:1036100018BFD2F1807288BF00F0004010BDFF21BA
:1036200041EAD050C005704790EA010F48BF81F0D1
:1036300000413FF5E0AD421A04D882F00042A0EB11
:10364000020011444FEAD0524FF07F4C1CEA410F68
:10365000A2EBD15318BF9CEA026F4AD04FF0004C46
:103660004CEA00204CEA012121FA03FCB0EB0C0CDF
:103670000FD412F0FE0F36D05FEA4C001DD50012B9
:1036800040EBC25038BF70471CF03F0F18BF704767
:103690000BE0A2F101025FEA1C2040EBC25038BFF0
:1036A00070471CF07F0F18BF7047C3F1200399408B
:1036B00014BF401E20F00100704780084FEA12231B
:1036C00008BF7047B0FA80FCA2EB0C02CCF1280CCA
:1036D00060FA0CF093EA122F04BF00EBC25070475F
:1036E0004FEAC3707047130A5FEADC1008BF7047E7
:1036F000F6E79CEA026F04D010EA5C0F08BF0020D6
:10370000704710B5FFF745FF40DFF63E81F00040FF
:103710007047FDF77DB80000000000000000002F9A
:10372000000000000700070000147F147F1400242D
:103730002A7F2A120062640813230036495522505A
:1037400000000503000000001C224100000041228F
:103750001C000014083E08140008083E0808000079
:1037600000A0600000080808080800006060000071
:10377000002010080402003E5149453E0000427FEF
:103780004000004261514946002141454B3100183B
:1037900014127F10002745454539003C4A494930FD
:1037A00000017109050300364949493600064949B7
:1037B000291E0000363600000000563600000008C2
:1037C000142241000014141414140000412214089F
:1037D00000020151090600324959513E007C121184
:1037E000127C007F49494936003E41414122007F19
:1037F0004141221C007F49494941007F09090901D3
:10380000003E4149497A007F0808087F0000417F57
:103810004100002040413F01007F08142241007F09
:1038200040404040007F020C027F007F0408107F70
:10383000003E4141413E007F09090906003E4151D9
:10384000215E007F09192946004649494931000196
:10385000017F0101003F4040403F001F2040201FEA
:10386000003F4038403F00631408146300070870AD
:10387000080700615149454300007F414100005560
:103880002A552A55000041417F000004020102042C
:103890000040404040400000010204000020545419
:1038A0005478007F48444438003844444420003869
:1038B0004444487F00385454541800087E090102DB
:1038C0000018A4A4A47C007F080404780000447DB0
:1038D0004000004080847D00007F102844000000EC
:1038E000417F4000007C04180478007C08040478C0
:1038F00000384444443800FC2424241800182424AC
:1039000018FC007C080404080048545454200004A7
:103910003F444020003C4040207C001C2040201CB4
:10392000003C4030403C004428102844001CA0A02B
:10393000A07C004464544C44141414141414000067
:10394000000000000000000000000000FC0000007B
:10395000000002000000000C020C02000000000049
:10396000000090D0BCD0BC900003000300001824DD
:10397000FE448C000302070201001824D8B04C80DA
:10398000000300010201C038E438E0000102020136
:103990000202080600000000000000000000000015
:1039A00000F80402000000010204000204F8000014
:1039B0000004020100009060F86090000000010027
:1039C00000002020FC20200000000100000000007A
:1039D0000000000008060000000020202020200039
:1039E00000000000000000000000000000020000D5
:1039F00000000080601C0200040300000000F804C6
:103A00000404F8000102020201000008FC000000AA
:103A1000000203020000188444241800030202027A
:103A2000020008042424D80001020202010040B070
:103A300088FC80000000000302003C242424C40011
:103A4000010202020100F824242CC000010202023B
:103A500001000C04E41C0400000003000000D82452
:103A60002424D80001020202010038444444F80032
:103A7000000302020100000010000000000002002C
:103A800000000000200000000000060000000020F0
:103A90005088040200000000010290909090900075
:103AA0000000000000000002048850200002010015
:103AB00000001804C4241800000002000000F804EC
:103AC000E494F80001020202020000E09CF0800091
:103AD00002030000030204FC2424D80002030202B3
:103AE0000100F80404040C0001020202010004FCBD
:103AF0000404F80002030202010004FC24740C0018
:103B000002030202030004FC24740C0002030200FE
:103B10000000F0080444CC4000010202010004FC53
:103B20002020FC040203000003020404FC0404003F
:103B3000020203020200000404FC0404060404035D
:103B4000000004FC24D00C0402030200030204FC65
:103B500004000000020302020203FC3CC03CFC0023
:103B600003000300030004FC30C4FC040203020051
:103B70000300F8040404F80001020202010004FC3E
:103B800024241800020302000000F8848404F800D2
:103B900001020207050004FC2464980002030200ED
:103BA0000302182424448C000302020201000C04C6
:103BB000FC040C0000020302000004FC0000FC04F2
:103BC000000102020100047C80E01C0400000300EC
:103BD00000001CE03CE01C00000300030000049C0B
:103BE000609C0400020300030200041CE01C0400AB
:103BF0000002030200000C84641C040002030202A1
:103C000003000000FE020200000007040400000E92
:103C100030C00000000000010200000202FE0000AF
:103C2000000404070000000402040000000000007B
:103C30000000000000000000080808080808000054
:103C4000020000000000000000000040A0A0C00032
:103C500000010202030204FC2020C0000003020253
:103C6000010000C02020600000010202020000C02C
:103C70002024FC0000010202030200C0A0A0C0003A
:103C80000001020202000020F824240400020302C2
:103C900002000040A0A0602000070A0A0A0404FCF9
:103CA0002020C0000203020003020020E400000004
:103CB000000203020000000020E4000008080807DA
:103CC000000004FC80E02020020302000302040440
:103CD000FC000000020203020200E020E020C0001D
:103CE00003000300030020E02020C00002030200C4
:103CF000030200C02020C00000010202010020E0F9
:103D00002020C000080F0A02010000C02020E000AF
:103D10000001020A0F0820E04020200002030200F8
:103D200000000060A0A020000002020203000020AA
:103D3000F820000000000102020020E00020E00066
:103D400000010202030220E0208060200000030145
:103D500000006080E080600000030003000020603D
:103D60008060200002030003020020E02080602029
:103D70000808070100000020A060200000020302E4
:103D80000200000020DE0200000000070400000026
:103D900000FF00000000000F00000002DE20000015
:103DA00000040700000002010204040200000000F9
:103DB0000000000000000000000000000000000003
:103DC0000000000000F80000000000000033300098
:103DD000000000100C06100C06000000000000009F
:103DE000000040C07840C0784000043F04043F0415
:103DF0000400007088FC08300000001820FF211E1D
:103E00000000F008F000E018000000211C031E2153
:103E10001E0000F00888700000001E2123241927CE
:103E2000211010160E00000000000000000000002D
:103E30000000000000E01804020000000007182045
:103E4000400000020418E0000000004020180700B5
:103E50000000404080F0804040000202010F01025B
:103E60000200000000F0000000000101011F01013C
:103E70000100000000000000000080B070000000A1
:103E8000000000000000000000000001010101012D
:103E900001010000000000000000003030000000C0
:103EA0000000000000008060180400601806010097
:103EB000000000E010080810E000000F10202010A3
:103EC0000F00001010F8000000000020203F20200C
:103ED00000000070080808887000003028242221A3
:103EE0003000003008888848300000182020201159
:103EF0000E000000C02010F8000000070424243F3A
:103F0000240000F8088888080800001921202011E2
:103F10000E0000E0108888180000000F112020110A
:103F20000E0000380808C83808000000003F0000F4
:103F300000000070880808887000001C22212122DF
:103F40001C0000E010080810E000000031222211DF
:103F50000F00000000C0C000000000000030300072
:103F600000000000008000000000000080600000F1
:103F7000000000008040201008000001020408102A
:103F80002000404040404040400004040404040439
:103F900004000008102040800000002010080402E7
:103FA0000100007048080808F000000000303601E9
:103FB0000000C030C828E810E000071827242314A8
:103FC0000B000000C038E0000000203C2302022764
:103FD000382008F8888888700000203F20202011B1
:103FE0000E00C030080808083800071820202010EC
:103FF000080008F808080810E000203F20202010E2
:104000000F0008F88888E8081000203F20202320AF
:10401000180008F88888E8081000203F20000300F6
:104020000000C03008080838000007182020221EB1
:10403000020008F808000008F808203F21010121CB
:104040003F20000808F8080800000020203F20203A
:10405000000000000808F8080800C08080807F0089
:10406000000008F888C028180800203F20012638E2
:10407000200008F8080000000000203F2020202039
:10408000300008F8F800F8F80800203F003F003F33
:10409000200008F830C00008F808203F200007186A
:1040A0003F00E01008080810E0000F10202020104A
:1040B0000F0008F808080808F000203F210101015E
:1040C0000000E01008080810E0000F182424385001
:1040D0004F0008F8888888887000203F2000030C73
:1040E000302000708808080838000038202121227C
:1040F0001C00180808F8080818000000203F2000DD
:10410000000008F808000008F808001F2020202000
:104110001F000878880000C83808000007380E0122
:104120000000F80800F80008F800033C0700073C0E
:104130000300081868808068180820302C03032CBE
:1041400030200838C800C83808000000203F200090
:10415000000010080808C838080020382621202050
:104160001800000000FE020202000000007F404034
:104170004000000C30C000000000000000010638C4
:10418000C00000020202FE000000004040407F002C
:104190000000000004020202040000000000000011
:1041A000000000000000000000008080808080800F
:1041B00080800002020400000000000000000000F7
:1041C000000000008080808000000019242222224C
:1041D0003F2008F8008080000000003F11202011DF
:1041E0000E000000008080800000000E11202020C2
:1041F0001100000000808088F800000E11202010BF
:104200003F200000808080800000001F22222222A8
:104210001300008080F0888888180020203F20202C
:1042200000000000808080808000006B9494949354
:10423000600008F8008080800000203F21000020FE
:104240003F2000809898000000000020203F2020A0
:104250000000000000809898000000C08080807FEF
:10426000000008F8000080808000203F24022D30EC
:104270002000000808F8000000000020203F202057
:1042800000008080808080808000203F20003F20D0
:10429000003F8080008080800000203F21000020BF
:1042A0003F200000808080800000001F2020202010
:1042B0001F00808000808000000080FFA12020116E
:1042C0000E000000008080808000000E112020A0E1
:1042D000FF80808080008080800020203F2120009F
:1042E000010000008080808080000033242424248A
:1042F0001900008080E0808000000000001F202066
:1043000000008080000000808000001F202020101E
:104310003F20808080000080808000010E300806F1
:10432000010080800080008080800F300C030C3002
:104330000F0000808000808080000020312E0E3130
:104340002000808080000080808080818E70180630
:10435000010000808080808080000021302C22219C
:10436000300000000000807C020200000000003FDE
:10437000404000000000FF00000000000000FF00BF
:1043800000000002027C800000000040403F00006E
:104390000000000601010202040400000000000009
:1043A000000000000000000000000000000000000D
:1043B00000000000000000000000000000000000FD
:1043C0000000000000000000000000F0F0F000001D
:1043D00000000000000000017F010000000000005C
:1043E0000000001C1C1C0000000000008060301C4D
:1043F0008C60301C0C000000000000000000000079
:1044000000000000000000000000000000000000AC
:1044100000E00000000000E000000086E69F8686C5
:104420008686E69F860000011F01010101011F0130
:104430000100000080C06020F820E0C00000000003
:1044400003070C18FF70E18100000000070F101037
:104450007F100F0700008060206080000000E020D7
:1044600000000F3020309F70DC371030C00000009B
:10447000100E03000718101807000000C02020E0ED
:10448000C0000000000080E01F38E88703C43C043F
:104490000000070F1810100B070D10100800008007
:1044A0008C4C3800000000000000000000000000FC
:1044B00000000000000000000000000000000000FC
:1044C000000000000000000080E030080400000050
:1044D000000000FEFF0100000000000000000000DE
:1044E000030F1820400000040830E08000000000A6
:1044F00000000000000001FFFE000000000000407E
:1045000020180F0300000000000000000000000061
:10451000C00000000000004266663C18FF183C66C0
:1045200066420000000000000300000000000000E0
:1045300000000000800000000000001010101010AB
:10454000FF10101010100000000000000300000019
:10455000000000000000000000000000000000005B
:104560000000000000000000000000808C4C3800BB
:10457000000000000000000000000000000000003B
:10458000000000101010101010101010100000008B
:10459000000000000000000000000000000000001B
:1045A000000000000000000000000000000000000B
:1045B000000000001C1C1C000000000000000000A7
:1045C000000000000000E0380C00000000008070D7
:1045D0001C03000000000060380E01000000000015
:1045E0000000000080C060202060C080000000FE4D
:1045F000FF010000000001FFFE000001070E18107F
:1046000010180E0701000000808080C0E00000004C
:1046100000000000000000FFFF000000000000009C
:104620001010101F1F1010100000008040202020CC
:104630002060C080000000030300804020381F0776
:104640000000001C1A1918181818181F0000008004
:10465000C020202060C08000000000030300101074
:10466000182FE780000000070F10101010180F0718
:104670000000000000000000C0E0F000000000C0EA
:10468000B088868180FFFF8080000000000000105D
:10469000101F1F1010000000E0606060606060602C
:1046A000000000003F1008080818F0E000000007B4
:1046B0000B101010101C0F030000000080C04020E1
:1046C0002020E0C0000000FCFF211008080818F0BE
:1046D000E0000001070C18101010080F0300000084
:1046E000C0E06060606060E0600000000300000007
:1046F000E0180700000000000000001F1F0000007D
:1047000000000080C0602020202060C08000008762
:10471000EF2C1818303068CF830000070F081010F6
:104720001010180F07000000C0C020202020C080FB
:104730000000001F3F604040402010FFFE000000CE
:104740000C1C101010080F030000000000000000F7
:1047500000000000000000000000000E0E0E00002F
:10476000000000000000001C1C1C000000000000F5
:104770000000000000000000000000000000000C2D
:104780000C0000000000000000000058380000008D
:104790000000000000000000008040201000000029
:1047A000102844820100000000000000000000000A
:1047B00001020408100000000000000000000000DA
:1047C00000000084848484848484848484000000C1
:1047D00000000000000000000000000010204080E9
:1047E00000000000000000000000000001824428DA
:1047F000100000001008040201000000000000C0CA
:1048000020201010101030E0C0000003030000F062
:1048100010080C070300000000001C1C1C00000016
:104820000000000000C0406020202040C00000FCCC
:10483000FF01F00E03C1FE03807F0001070E081187
:104840001110110904020000000080E0E0000000E7
:1048500000000000807C4340477FF8800000101873
:104860001F1000000000131F1C1020E0E02020207B
:104870002060C080000000FFFF10101010182FE70C
:104880008000101F1F1010101010180F07000000DC
:1048900080C0402020202060E00000FCFF010000DC
:1048A0000000000001000001070E1810101008049D
:1048B000030020E0E02020202040C080000000FF16
:1048C000FF000000000001FFFE00101F1F1010106D
:1048D00018080E07010020E0E020202020202060A2
:1048E000800000FFFF101010107C00000000101F5F
:1048F0001F10101010101018060020E0E0202020DB
:1049000020206060800000FFFF101010107C00006D
:104910000100101F1F100000000000000000000038
:1049200080C06020202040E0000000FCFF0100006B
:104930004040C0C140400001070E181010100F0F7A
:10494000000020E0E0200000000020E0E02000FF68
:10495000FF101010101010FFFF00101F1F1000009C
:104960000000101F1F100000202020E0E020202069
:1049700000000000000000FFFF0000000000000039
:104980001010101F1F101010000000000000202049
:1049900020E0E020202000000000000000FFFF00D9
:1049A00000000060E0808080C07F3F00000020E0C9
:1049B000E020000020A06020200000FFFF30187CD5
:1049C000E3C000000000101F1F10000001131F1C97
:1049D000181020E0E020000000000000000000FFB0
:1049E000FF000000000000000000101F1F1010104A
:1049F00010101018060020E0E0E000000000E0E0E9
:104A0000E02000FF013FFEC0E01E01FFFF00101F7D
:104A10001000031F0300101F1F1020E0E0C0000063
:104A200000000020E02000FF0003071C78E0800069
:104A3000FF00101F100000000000030F1F00000007
:104A400080C060202060C080000000FEFF010000E8
:104A5000000000FFFE000001070E181010180C07E0
:104A6000010020E0E0202020202060C0800000FF26
:104A7000FF2020202020301F0F00101F1F100000DB
:104A8000000000000000000080C060202060C080A6
:104A9000000000FEFF010000000000FFFE0000011A
:104AA000070E1111133C7C67210020E0E02020203C
:104AB000202060C0800000FFFF101030F0D0080FF1
:104AC0000700101F1F10000000030F1C10100080B3
:104AD000C060202020204040E00000070F0C181884
:104AE000303060E08100001F0C0810101010180F0B
:104AF00007008060202020E0E0202020608001006E
:104B0000000000FFFF000000000100000000101F77
:104B10001F100000000020E0E02000000000002046
:104B2000E02000FFFF00000000000000FF00000781
:104B30000F1810101010100807002060E0E020008F
:104B4000000020E060200000077FF88000807C03E8
:104B5000000000000000071F1C070000000020E00C
:104B6000E02000E0E0200020E0200007FFF8E01F48
:104B7000FFFCE01F00000000031F0300011F0300F3
:104B80000000002060E0A0000020E06020000000A5
:104B900000038F7CF8C6010000000010181E1300EF
:104BA00001171F1810002060E0E02000000020E046
:104BB0006020000001073EF8E01807000000000038
:104BC0000010101F1F101000000000806020202027
:104BD00020A0E0E0200000000000C0F03E0F030035
:104BE000000000101C1F1710101010180600000005
:104BF000000000FC0404040404000000000000FFA6
:104C000000000000000000000000007F4040404025
:104C10004000000010E00000000000000000000064
:104C20000000031C60800000000000000000000085
:104C300000030C70800000000404040404FC000065
:104C4000000000000000000000FF00000000000065
:104C500040404040407F0000000000000010080C71
:104C6000040C08100000000000000000000000001C
:104C70000000000000000000000000000000000034
:104C80000000000000000000000000000000000024
:104C90000000000000008080808080808080808014
:104CA00080800000000404080800000000000000EC
:104CB00000000000000000000000000000000000F4
:104CC00000000000000000000000000000000000E4
:104CD0000000000098D844642424FCF80000000F71
:104CE0001F18101010081F1F10180020E0F00000FF
:104CF0000000000000000000FFFF180804040CF88A
:104D0000F00000001F0F18101010180F0300000013
:104D10000000000000000000000000E0F81804049B
:104D2000043C3800000000030F0C1010101008069F
:104D300000000000000000000020E0F0000000E0A3
:104D4000F81C04040408FFFF000000030F181010F3
:104D500010081F0F08000000000000000000000005
:104D600000000000E0F8484444444C787000000023
:104D7000030F0C181010100804000000000080C081
:104D8000602020E0C00000040404FFFF04040404C9
:104D90000000000010101F1F101010000000000085
:104DA00000000000000000000000000070F88C040B
:104DB000048CF874040C007076CF8D8D8D89C878C2
:104DC00070000020E0F00000000000000000000083
:104DD000FFFF08040404FCF8000000101F1F10006F
:104DE00000101F1F100000000000006060000000A5
:104DF00000000000040404FCFC00000000000000AF
:104E00001010101F1F101010000000000000000004
:104E100000606000000000000000040404FCFC00CE
:104E200000000000C0C08080C07F3F000000002064
:104E3000E0F000000000000000000000FFFF80C064
:104E4000F41C0404000000101F1F1100031F1C109D
:104E500010000000202020E0F00000000000000012
:104E6000000000FFFF000000000000001010101FF5
:104E70001F101010000000000000000000000000E3
:104E8000000004FCFC0804FCFC0804FCFC00101FEF
:104E90001F10001F1F10001F1F1000000000000047
:104EA0000000000000000004FCFC08080404FCF8FA
:104EB000000000101F1F100000101F1F1000000036
:104EC0000000000000000000000000E0F0180C04EA
:104ED000040C18F0E00000030F0C101010100C0F61
:104EE00003000000000000000000000000000004BB
:104EF000FCFC080404040CF8F0000080FFFF88901C
:104F000010101C0F03000000000000000000000053
:104F1000000000E0F81C04040408F8FC0000000392
:104F20000F1810109088FFFF8000000000000000A4
:104F3000000000000000040404FCFC100804040C41
:104F40000C001010101F1F101010000000000000B7
:104F50000000000000000000000000003078CCC419
:104F60008484840C1C0000001E1810101011190FEE
:104F700006000000000000C0000000000000000467
:104F80000404FFFF040404000000000000000F1FE1
:104F90001010100C000000000000000000000000D5
:104FA00000000004FCFE00000004FCFE0000000005
:104FB0000F1F181010081F0F08000000000000004D
:104FC00000000000000000040C3CFCC40000C43CD5
:104FD0000C0400000000010F1E0E01000000000084
:104FE00000000000000000000000043CFCC400E4DD
:104FF0007CFC84807C040000071F070000071F075B
:10500000000000000000000000000000000000049C
:10501000041C7CE4C0341C0404000010101C1601A5
:10502000131F1C181000000000000000000000000A
:10503000000000040C3CFCC400C43C04040000005C
:10504000C080C1370E010000000000000000000019
:1050500000000000000000001C0404C4F47C1C04D8
:1050600000000000101C1F17111010180E00000087
:105070000000000000F80C04000000000000001018
:1050800028EF00000000000000000000003F60402A
:105090000000000000000000FF0000000000000011
:1050A00000000000FF000000000000000000000001
:1050B000FF00000000000000040CF80000000000E9
:1050C000000000000000EF281000000000000000B9
:1050D00040603F00000000000000001806020204CB
:1050E0000810202030080000000000000000000030
:1050F0000000000000000000000000000000403C34
:1051000010FF101020108F7808F808F80000020631
:1051100002FF0101044221184681403F000002FEC7
:105120009292FE0200101116F01413100000101FCE
:105130000808FF048141310D030D3141810000FE5B
:105140000222428272022242827202FE000000FFAC
:10515000100806010E100806014E807F00000004B2
:105160000404040404FC04040404040400002020D7
:1051700020202020203F2020202020202000242428
:10518000A4FE2322003E22222222223E0000080604
:1051900001FF0106404949497F49494941001060E2
:1051A000028C0000FE9292929292FE000000040493
:1051B0007E01407E42427E427E42427E400020206E
:1051C000242464A4243F24A4642424202000080868
:1051D0000909090909FF0909090909080800080856
:1051E00088A4ECAAAAF9AAAAECA48808080088D482
:1051F00096FD96D4880088D496FD96D48800000049
:105200004040404040FF404040404000000040409F
:1052100040404040407F40404040404040001010EF
:10522000FF100082BAEABA83BAEABA82000008180C
:105230000F04484A2AFF8A4A1A2F5A8A88001060A7
:10524000028C00FE929292929292FE000000040460
:105250007E014448507F40407F5048444000000059
:10526000FC242424FC252624FC242424040040308F
:105270008F80844C55252525554C80808000100C4E
:105280004424140405060404142444140C000040AF
:1052900040414141417F4141414140400000201097
:1052A0004C4754545454545454D404040000000043
:1052B0000000000000000000000F3040F00010600F
:1052C000028C0000FE9292929292FE000000040472
:1052D0007E01407E42427E427E42427E400000008D
:1052E000FC242424FC252624FC242424040040300F
:1052F0008F80844C55252525554C808080000010DA
:10530000101010101010D0F07C3E1E101010101055
:105310001010181810000000406030180CFFFF112A
:1053200011111111111111FFFF0100000000000007
:1053300000000000007F7F01010101010121617F68
:105340003F000000000000000000C0C0404040409E
:1053500040FEFEFC4040404040C0C0400000000015
:105360000000FFFF0080C060781F0F183870E0E079
:1053700000FFFF000000000000007F7F030100002D
:105380000000000010101131303F1F0000000040ED
:10539000404040FEFE406060C0E07CFED61090D0F1
:1053A000F070100000000000C0F03FFFFF8EDC59DD
:1053B00061E0F0584F474F59D8F0702020000001AD
:1053C0000100007F7F000000007F7F101010101090
:1053D0007F7F0000000000000000000000000000CF
:1053E0000000000000FCF8000000000000000000C9
:1053F00000000000000000000000FFFE02020202A8
:105400000202020202FFFF02020202020202020282
:10541000FF0300000000000000001F1F040404043C
:105420000404040404FFFF04040404040404040446
:105430001F0000000000000000000000000000004D
:1054400000000000007F3F0000000000000000009E
:10545000000000000000000000000000000000004C
:10546000000000000000000000000000000000003C
:10547000000000F8F8F0F0702000000000000000CC
:10548000000000000000000000000000000000001C
:10549000000000000000000000000000000080008C
:1054A00000000000000000000000000000000000FC
:1054B000000000FFFFFFFF000000000000000000F0
:1054C00000000000000000000000808000000000DC
:1054D000000000000000000000000000000000FFCD
:1054E000FFFE06060606060606060606060606066B
:1054F000060606FFFFFFFF06060606060606060668
:10550000060606060606060606FFFFFFFF07020060
:10551000000000000000000000000000000000FF8C
:10552000FFFF00000000000000000000000000007D
:10553000000000FFFFFFFF0000000000000000006F
:10554000000000000000000000FFFFFFFF0000005F
:10555000000000000000000000000000000000FF4C
:10556000FFFF1818181818181818181818181818ED
:10557000181818FFFFFFFF1818181818181818180F
:10558000181818181818181818FFFFFFFF00000047
:105590000000000000000000000000000000020108
:1055A00001000000000000000000000000000000FA
:1055B000000000FFFFFFFF000000000000000000EF
:1055C00000000000000000000001010000000000D9
:1055D00000000000000000000000000000000000CB
:1055E00000000000000000000000000000000000BB
:1055F000000000FFFFFFFF000000000000000000AF
:10560000000000000000000000000000000000009A
:10561000000000000000000000000000000000008A
:10562000000000000000000000000000000000007A
:105630000000001F1F0F0F0000000000000000000E
:10564000000000000000000000000000000000005A
:105650000000000000000000F700060126014A01DA
:105660005D018801B801EE010B024B029302BA0200
:105670001003E803F700060126014A015D018801D5
:10568000B801EE010B024B029302BA021003E803C9
:10569000F700060126014A015D018801B801EE010B
:1056A0000B024B029302BA021003E803024000000F
:1056B000000000A00000000005400000000000C83D
:1056C000000000000C4000000000409C00000000B2
:1056D000194000000020BCBE000000003440000063
:1056E000BFC91B8E00000004B5400000504BCFD056
:1056F0006607E2CF010000006C4100003E8251AA23
:10570000DFEEA73401000000D9420000DCB5A0E2C2
:105710003A301F97FFFFFFFFB4450000FD25A0C8EA
:10572000E9A3C14FFFFFFFFFFF3F00000000008023
:1057300000000000FF3F00000000008000000000AB
:105740008C580008000000207404000028010008A4
:10575000005A000874040020140B000084010008A3
:105760001C00000043000000F8FFFFFF0C000000D9
:105770000E0000000F0000002E00000010010000CD
:1057800043000000F8FFFFFF004040404040404021
:105790004040414141414140404040404040404004
:1057A00040404040404040404005020202020202A8
:1057B00002020202020202020220202020202020F7
:1057C000202020020202020202029090909090900B
:1057D00010101010101010101010101010101010C9
:1057E000101010100202020202028888888888883D
:1057F0000808080808080808080808080808080829
:105800000808080802020202400000000000000030
:105810000000000000000000000000000000000088
:105820000000000000000000000000000000000078
:105830000000000000000000000000000000000068
:105840000000000000000000000000000000000058
:105850000000000000000000000000000000000048
:105860000000000000000000000000000000000038
:105870000000000000000000000000000000000028
:105880000000000000000000000000001184A24A97
:105890000400096401020304060708092280500875
:1058A000408080A080A0A0280A6074F8FCFCFCF86E
:1058B000F880014FE0F8FCFEFEFF01AFFEFEFCF8B1
:1058C000F0C037990701386DB0F6FCFF61680FFF33
:1058D0007FBF3E9CCECEE7E7F3F3FBFBF901301030
:1058E000FBF3F3F7E7E7CF9F9F3F7FFFFFDFAF209B
:1058F0000B0606060E0C1CB9F5F8D0080930030398
:1059000007061E3CFAE0F62809C0A0E0E0600C079C
:105910000F57197B7E0FC7F1FAFC8A8EFFFFFB83BE
:105920003F0D4901500AFEFCF9E3AF1EFCF0C856DA
:10593000A160C3FFFF0528383C1F0F26F0FC3F077E
:10594000031E10B8F9FFBF08411A637EEB41F96DE1
:105950001FFFFF78011F3F017808BFBF9F9FDFDF58
:10596000DF85367007FFFFE82B0607490130270364
:10597000070F1C3938200A010B0F5F3C70E0E07004
:105980001A04E9FCC00F7F800D10FEFCFCFC96079A
:105990004EBF0DF1FF7F2F080A1001071F3EF8E3ED
:1059A000C79F3F859901080A317F3F1FCFEBF8FC65
:1059B0001F0FF709228558100307070E1CF8F9F38B
:1059C000F3E7E7EFCFCFDF01280FCFCFCFE7E777C0
:1059D000733B391C1E0E0F1FA2044BFE7D389480B2
:1059E00080802C303B7F012A3FE16A010101433D69
:1059F00002040608E32C02030404650607080900F4
:04000005080001F9F5
:00000001FF
